{
  "contractName": "Loterie2",
  "abi": [
    {
      "anonymous": false,
      "inputs": [
        {
          "indexed": false,
          "internalType": "uint256",
          "name": "index",
          "type": "uint256"
        }
      ],
      "name": "LotteryCreated",
      "type": "event"
    },
    {
      "anonymous": false,
      "inputs": [
        {
          "indexed": true,
          "internalType": "address",
          "name": "previousOwner",
          "type": "address"
        },
        {
          "indexed": true,
          "internalType": "address",
          "name": "newOwner",
          "type": "address"
        }
      ],
      "name": "OwnershipTransferred",
      "type": "event"
    },
    {
      "anonymous": false,
      "inputs": [
        {
          "indexed": false,
          "internalType": "uint256",
          "name": "index",
          "type": "uint256"
        },
        {
          "indexed": false,
          "internalType": "address",
          "name": "participant",
          "type": "address"
        },
        {
          "indexed": false,
          "internalType": "uint256",
          "name": "value",
          "type": "uint256"
        }
      ],
      "name": "Participation",
      "type": "event"
    },
    {
      "inputs": [],
      "name": "getOwner",
      "outputs": [
        {
          "internalType": "address",
          "name": "",
          "type": "address"
        }
      ],
      "stateMutability": "view",
      "type": "function",
      "constant": true
    },
    {
      "inputs": [
        {
          "internalType": "uint256",
          "name": "",
          "type": "uint256"
        }
      ],
      "name": "lotteries",
      "outputs": [
        {
          "internalType": "uint256",
          "name": "total_amount",
          "type": "uint256"
        },
        {
          "internalType": "uint256",
          "name": "max_amount",
          "type": "uint256"
        },
        {
          "internalType": "uint256",
          "name": "exceeding_tolerance",
          "type": "uint256"
        },
        {
          "internalType": "uint256",
          "name": "lock_block",
          "type": "uint256"
        },
        {
          "internalType": "bool",
          "name": "is_dropped",
          "type": "bool"
        }
      ],
      "stateMutability": "view",
      "type": "function",
      "constant": true
    },
    {
      "inputs": [],
      "name": "owner",
      "outputs": [
        {
          "internalType": "address",
          "name": "",
          "type": "address"
        }
      ],
      "stateMutability": "view",
      "type": "function",
      "constant": true
    },
    {
      "inputs": [
        {
          "internalType": "address",
          "name": "newOwner",
          "type": "address"
        }
      ],
      "name": "transferOwnership",
      "outputs": [],
      "stateMutability": "nonpayable",
      "type": "function"
    },
    {
      "inputs": [
        {
          "internalType": "uint256",
          "name": "max_amount",
          "type": "uint256"
        },
        {
          "internalType": "uint256",
          "name": "exceeding_tolerance",
          "type": "uint256"
        },
        {
          "internalType": "uint256",
          "name": "duration_in_blocks",
          "type": "uint256"
        }
      ],
      "name": "create_lottery",
      "outputs": [],
      "stateMutability": "nonpayable",
      "type": "function"
    },
    {
      "inputs": [
        {
          "internalType": "uint256",
          "name": "index",
          "type": "uint256"
        }
      ],
      "name": "participate",
      "outputs": [],
      "stateMutability": "payable",
      "type": "function",
      "payable": true
    },
    {
      "inputs": [
        {
          "internalType": "uint256",
          "name": "index",
          "type": "uint256"
        }
      ],
      "name": "withdraw_gains",
      "outputs": [],
      "stateMutability": "nonpayable",
      "type": "function"
    },
    {
      "inputs": [
        {
          "internalType": "uint256",
          "name": "index",
          "type": "uint256"
        }
      ],
      "name": "is_index_valid",
      "outputs": [
        {
          "internalType": "bool",
          "name": "",
          "type": "bool"
        }
      ],
      "stateMutability": "view",
      "type": "function",
      "constant": true
    },
    {
      "inputs": [
        {
          "internalType": "uint256",
          "name": "index",
          "type": "uint256"
        }
      ],
      "name": "is_lottery_playable",
      "outputs": [
        {
          "internalType": "bool",
          "name": "",
          "type": "bool"
        }
      ],
      "stateMutability": "view",
      "type": "function",
      "constant": true
    },
    {
      "inputs": [
        {
          "internalType": "uint256",
          "name": "index",
          "type": "uint256"
        }
      ],
      "name": "is_lottery_withdrawable",
      "outputs": [
        {
          "internalType": "bool",
          "name": "",
          "type": "bool"
        }
      ],
      "stateMutability": "view",
      "type": "function",
      "constant": true
    },
    {
      "inputs": [
        {
          "internalType": "uint256",
          "name": "index",
          "type": "uint256"
        },
        {
          "internalType": "uint256",
          "name": "value",
          "type": "uint256"
        }
      ],
      "name": "is_not_exceeding_tolerence",
      "outputs": [
        {
          "internalType": "bool",
          "name": "",
          "type": "bool"
        }
      ],
      "stateMutability": "view",
      "type": "function",
      "constant": true
    },
    {
      "inputs": [
        {
          "internalType": "uint256",
          "name": "index",
          "type": "uint256"
        }
      ],
      "name": "get_winner",
      "outputs": [
        {
          "internalType": "address",
          "name": "",
          "type": "address"
        }
      ],
      "stateMutability": "view",
      "type": "function",
      "constant": true
    },
    {
      "inputs": [
        {
          "internalType": "uint256",
          "name": "index",
          "type": "uint256"
        }
      ],
      "name": "get_lottery_lock_block",
      "outputs": [
        {
          "internalType": "uint256",
          "name": "",
          "type": "uint256"
        }
      ],
      "stateMutability": "view",
      "type": "function",
      "constant": true
    },
    {
      "inputs": [
        {
          "internalType": "uint256",
          "name": "index",
          "type": "uint256"
        }
      ],
      "name": "get_lottery_participants_number",
      "outputs": [
        {
          "internalType": "uint256",
          "name": "",
          "type": "uint256"
        }
      ],
      "stateMutability": "view",
      "type": "function",
      "constant": true
    },
    {
      "inputs": [
        {
          "internalType": "uint256",
          "name": "index",
          "type": "uint256"
        }
      ],
      "name": "get_lottery_total_amount",
      "outputs": [
        {
          "internalType": "uint256",
          "name": "",
          "type": "uint256"
        }
      ],
      "stateMutability": "view",
      "type": "function",
      "constant": true
    },
    {
      "inputs": [
        {
          "internalType": "uint256",
          "name": "index",
          "type": "uint256"
        }
      ],
      "name": "was_lottery_dropped",
      "outputs": [
        {
          "internalType": "bool",
          "name": "",
          "type": "bool"
        }
      ],
      "stateMutability": "view",
      "type": "function",
      "constant": true
    },
    {
      "inputs": [],
      "name": "get_lottery_count",
      "outputs": [
        {
          "internalType": "uint256",
          "name": "",
          "type": "uint256"
        }
      ],
      "stateMutability": "view",
      "type": "function",
      "constant": true
    },
    {
      "inputs": [],
      "name": "get_lotteries",
      "outputs": [
        {
          "components": [
            {
              "internalType": "address[]",
              "name": "addrs",
              "type": "address[]"
            },
            {
              "internalType": "uint256[]",
              "name": "amounts",
              "type": "uint256[]"
            },
            {
              "internalType": "uint256",
              "name": "total_amount",
              "type": "uint256"
            },
            {
              "internalType": "uint256",
              "name": "max_amount",
              "type": "uint256"
            },
            {
              "internalType": "uint256",
              "name": "exceeding_tolerance",
              "type": "uint256"
            },
            {
              "internalType": "uint256",
              "name": "lock_block",
              "type": "uint256"
            },
            {
              "internalType": "bool",
              "name": "is_dropped",
              "type": "bool"
            }
          ],
          "internalType": "struct Loterie2.Lottery[]",
          "name": "",
          "type": "tuple[]"
        }
      ],
      "stateMutability": "view",
      "type": "function",
      "constant": true
    },
    {
      "inputs": [
        {
          "internalType": "uint256",
          "name": "index",
          "type": "uint256"
        }
      ],
      "name": "get_lottery",
      "outputs": [
        {
          "components": [
            {
              "internalType": "address[]",
              "name": "addrs",
              "type": "address[]"
            },
            {
              "internalType": "uint256[]",
              "name": "amounts",
              "type": "uint256[]"
            },
            {
              "internalType": "uint256",
              "name": "total_amount",
              "type": "uint256"
            },
            {
              "internalType": "uint256",
              "name": "max_amount",
              "type": "uint256"
            },
            {
              "internalType": "uint256",
              "name": "exceeding_tolerance",
              "type": "uint256"
            },
            {
              "internalType": "uint256",
              "name": "lock_block",
              "type": "uint256"
            },
            {
              "internalType": "bool",
              "name": "is_dropped",
              "type": "bool"
            }
          ],
          "internalType": "struct Loterie2.Lottery",
          "name": "",
          "type": "tuple"
        }
      ],
      "stateMutability": "view",
      "type": "function",
      "constant": true
    },
    {
      "inputs": [],
      "name": "withdraw",
      "outputs": [],
      "stateMutability": "nonpayable",
      "type": "function"
    }
  ],
  "bytecode": "0x608060405234801561001057600080fd5b50336000806101000a81548173ffffffffffffffffffffffffffffffffffffffff021916908373ffffffffffffffffffffffffffffffffffffffff160217905550612229806100606000396000f3fe60806040526004361061011e5760003560e01c80636ef9d49d116100a05780639665c908116100645780639665c90814610403578063b0dffd0514610440578063c0ec65be1461047d578063f2fde38b146104ba578063fffb08bf146104e35761011e565b80636ef9d49d1461032b578063823a302214610354578063845c930614610391578063893d20e8146103ad5780638da5cb5b146103d85761011e565b806333cbb393116100e757806333cbb393146102325780633ccfd60b1461026f5780634d9be9d114610286578063585e9da0146102b15780635d98e6a2146102ee5761011e565b8062d6683f14610123578063047f9ad5146101605780631398e0761461018b57806316fa79dc146101cc578063243dc409146101f5575b600080fd5b34801561012f57600080fd5b5061014a600480360381019061014591906117b3565b610520565b6040516101579190611a4c565b60405180910390f35b34801561016c57600080fd5b50610175610685565b6040516101829190611a7d565b60405180910390f35b34801561019757600080fd5b506101b260048036038101906101ad91906117b3565b610692565b6040516101c3959493929190611aa7565b60405180910390f35b3480156101d857600080fd5b506101f360048036038101906101ee91906117b3565b6106e5565b005b34801561020157600080fd5b5061021c600480360381019061021791906117b3565b610991565b6040516102299190611b09565b60405180910390f35b34801561023e57600080fd5b5061025960048036038101906102549190611b24565b610ba2565b6040516102669190611b64565b60405180910390f35b34801561027b57600080fd5b50610284610c51565b005b34801561029257600080fd5b5061029b610d12565b6040516102a89190611ce4565b60405180910390f35b3480156102bd57600080fd5b506102d860048036038101906102d391906117b3565b610e9a565b6040516102e59190611b64565b60405180910390f35b3480156102fa57600080fd5b50610315600480360381019061031091906117b3565b610f0f565b6040516103229190611b64565b60405180910390f35b34801561033757600080fd5b50610352600480360381019061034d9190611d06565b610fa6565b005b34801561036057600080fd5b5061037b600480360381019061037691906117b3565b611133565b6040516103889190611a7d565b60405180910390f35b6103ab60048036038101906103a691906117b3565b611162565b005b3480156103b957600080fd5b506103c26113bf565b6040516103cf9190611b09565b60405180910390f35b3480156103e457600080fd5b506103ed6113e8565b6040516103fa9190611b09565b60405180910390f35b34801561040f57600080fd5b5061042a600480360381019061042591906117b3565b61140c565b6040516104379190611a7d565b60405180910390f35b34801561044c57600080fd5b50610467600480360381019061046291906117b3565b61143b565b6040516104749190611b64565b60405180910390f35b34801561048957600080fd5b506104a4600480360381019061049f91906117b3565b611477565b6040516104b19190611a7d565b60405180910390f35b3480156104c657600080fd5b506104e160048036038101906104dc9190611d85565b6114a9565b005b3480156104ef57600080fd5b5061050a600480360381019061050591906117b3565b6115f8565b6040516105179190611b64565b60405180910390f35b610528611645565b6001828154811061053c5761053b611db2565b5b90600052602060002090600702016040518060e0016040529081600082018054806020026020016040519081016040528092919081815260200182805480156105da57602002820191906000526020600020905b8160009054906101000a900473ffffffffffffffffffffffffffffffffffffffff1673ffffffffffffffffffffffffffffffffffffffff1681526020019060010190808311610590575b505050505081526020016001820180548060200260200160405190810160405280929190818152602001828054801561063257602002820191906000526020600020905b81548152602001906001019080831161061e575b50505050508152602001600282015481526020016003820154815260200160048201548152602001600582015481526020016006820160009054906101000a900460ff1615151515815250509050919050565b6000600180549050905090565b600181815481106106a257600080fd5b90600052602060002090600702016000915090508060020154908060030154908060040154908060050154908060060160009054906101000a900460ff16905085565b6106ee81610e9a565b61072d576040517f08c379a000000000000000000000000000000000000000000000000000000000815260040161072490611e3e565b60405180910390fd5b610736816115f8565b610775576040517f08c379a000000000000000000000000000000000000000000000000000000000815260040161076c90611eaa565b60405180910390fd5b60006001828154811061078b5761078a611db2565b5b9060005260206000209060070201600201546002600184815481106107b3576107b2611db2565b5b9060005260206000209060070201600501546107cf9190611ef9565b4060001c6107dd9190611f7e565b90506000805b600184815481106107f7576107f6611db2565b5b90600052602060002090600702016000018054905081101561094e576001848154811061082757610826611db2565b5b9060005260206000209060070201600101818154811061084a57610849611db2565b5b9060005260206000200154826108609190611ef9565b915082821061093b576001848154811061087d5761087c611db2565b5b906000526020600020906007020160000181815481106108a05761089f611db2565b5b9060005260206000200160009054906101000a900473ffffffffffffffffffffffffffffffffffffffff1673ffffffffffffffffffffffffffffffffffffffff166108fc600186815481106108f8576108f7611db2565b5b9060005260206000209060070201600201549081150290604051600060405180830381858888f19350505050158015610935573d6000803e3d6000fd5b5061094e565b808061094690611faf565b9150506107e3565b50600180848154811061096457610963611db2565b5b906000526020600020906007020160060160006101000a81548160ff021916908315150217905550505050565b600061099c82610e9a565b6109db576040517f08c379a00000000000000000000000000000000000000000000000000000000081526004016109d290611e3e565b60405180910390fd5b6109e4826115f8565b610a23576040517f08c379a0000000000000000000000000000000000000000000000000000000008152600401610a1a9061206a565b60405180910390fd5b600060018381548110610a3957610a38611db2565b5b906000526020600020906007020160020154600260018581548110610a6157610a60611db2565b5b906000526020600020906007020160050154610a7d9190611ef9565b4060001c610a8b9190611f7e565b90506000805b60018581548110610aa557610aa4611db2565b5b906000526020600020906007020160000180549050811015610b965760018581548110610ad557610ad4611db2565b5b90600052602060002090600702016001018181548110610af857610af7611db2565b5b906000526020600020015482610b0e9190611ef9565b9150828210610b835760018581548110610b2b57610b2a611db2565b5b90600052602060002090600702016000018181548110610b4e57610b4d611db2565b5b9060005260206000200160009054906101000a900473ffffffffffffffffffffffffffffffffffffffff169350505050610b9d565b8080610b8e90611faf565b915050610a91565b5030925050505b919050565b6000808260018581548110610bba57610bb9611db2565b5b906000526020600020906007020160020154610bd69190611ef9565b9050600060018581548110610bee57610bed611db2565b5b90600052602060002090600702016004015460018681548110610c1457610c13611db2565b5b906000526020600020906007020160030154610c309190611ef9565b9050808211610c4457600192505050610c4b565b6000925050505b92915050565b60008054906101000a900473ffffffffffffffffffffffffffffffffffffffff1673ffffffffffffffffffffffffffffffffffffffff163373ffffffffffffffffffffffffffffffffffffffff1614610ca957600080fd5b60008054906101000a900473ffffffffffffffffffffffffffffffffffffffff1673ffffffffffffffffffffffffffffffffffffffff166108fc479081150290604051600060405180830381858888f19350505050158015610d0f573d6000803e3d6000fd5b50565b60606001805480602002602001604051908101604052809291908181526020016000905b82821015610e9157838290600052602060002090600702016040518060e001604052908160008201805480602002602001604051908101604052809291908181526020018280548015610dde57602002820191906000526020600020905b8160009054906101000a900473ffffffffffffffffffffffffffffffffffffffff1673ffffffffffffffffffffffffffffffffffffffff1681526020019060010190808311610d94575b5050505050815260200160018201805480602002602001604051908101604052809291908181526020018280548015610e3657602002820191906000526020600020905b815481526020019060010190808311610e22575b50505050508152602001600282015481526020016003820154815260200160048201548152602001600582015481526020016006820160009054906101000a900460ff16151515158152505081526020019060010190610d36565b50505050905090565b600080821015610ead5760009050610f0a565b610eb5610685565b8210610ec45760009050610f0a565b60018281548110610ed857610ed7611db2565b5b906000526020600020906007020160060160009054906101000a900460ff1615610f055760009050610f0a565b600190505b919050565b600060018281548110610f2557610f24611db2565b5b90600052602060002090600702016005015443108015610f8e575060018281548110610f5457610f53611db2565b5b90600052602060002090600702016003015460018381548110610f7a57610f79611db2565b5b906000526020600020906007020160020154105b15610f9c5760019050610fa1565b600090505b919050565b60098111610fe9576040517f08c379a0000000000000000000000000000000000000000000000000000000008152600401610fe0906120fc565b60405180910390fd5b610ff1611645565b60008160400181815250508381606001818152505081436110129190611ef9565b8160a00181815250508281608001818152505060008160c00190151590811515815250506001819080600181540180825580915050600190039060005260206000209060070201600090919091909150600082015181600001908051906020019061107e929190611684565b50602082015181600101908051906020019061109b92919061170e565b5060408201518160020155606082015181600301556080820151816004015560a0820151816005015560c08201518160060160006101000a81548160ff02191690831515021790555050507f9e0023bebcc752baaa41057318405b5a6a8e9c6372b519717cfdf238e5caa79560018080549050611118919061211c565b6040516111259190611a7d565b60405180910390a150505050565b60006001828154811061114957611148611db2565b5b9060005260206000209060070201600201549050919050565b61116b81610e9a565b6111aa576040517f08c379a00000000000000000000000000000000000000000000000000000000081526004016111a190611e3e565b60405180910390fd5b6111b381610f0f565b6111f2576040517f08c379a00000000000000000000000000000000000000000000000000000000081526004016111e990611eaa565b60405180910390fd5b6111fc8134610ba2565b61123b576040517f08c379a00000000000000000000000000000000000000000000000000000000081526004016112329061219c565b60405180910390fd5b6001818154811061124f5761124e611db2565b5b9060005260206000209060070201600001339080600181540180825580915050600190039060005260206000200160009091909190916101000a81548173ffffffffffffffffffffffffffffffffffffffff021916908373ffffffffffffffffffffffffffffffffffffffff160217905550600181815481106112d5576112d4611db2565b5b9060005260206000209060070201600101349080600181540180825580915050600190039060005260206000200160009091909190915055346001828154811061132257611321611db2565b5b906000526020600020906007020160020160008282546113429190611ef9565b9250508190555061135281610f0f565b61138157436001828154811061136b5761136a611db2565b5b9060005260206000209060070201600501819055505b7fdaf0de1cb11595fc0aeb061aacd4678e27a94d6794a4f54a9287d732c3f2ce828133346040516113b4939291906121bc565b60405180910390a150565b60008060009054906101000a900473ffffffffffffffffffffffffffffffffffffffff16905090565b60008054906101000a900473ffffffffffffffffffffffffffffffffffffffff1681565b60006001828154811061142257611421611db2565b5b9060005260206000209060070201600501549050919050565b60006001828154811061145157611450611db2565b5b906000526020600020906007020160060160009054906101000a900460ff169050919050565b60006001828154811061148d5761148c611db2565b5b9060005260206000209060070201600001805490509050919050565b60008054906101000a900473ffffffffffffffffffffffffffffffffffffffff1673ffffffffffffffffffffffffffffffffffffffff163373ffffffffffffffffffffffffffffffffffffffff161461150157600080fd5b600073ffffffffffffffffffffffffffffffffffffffff168173ffffffffffffffffffffffffffffffffffffffff16141561153b57600080fd5b8073ffffffffffffffffffffffffffffffffffffffff1660008054906101000a900473ffffffffffffffffffffffffffffffffffffffff1673ffffffffffffffffffffffffffffffffffffffff167f8be0079c531659141344cd1fd0a4f28419497f9722a3daafe3b4186f6b6457e060405160405180910390a3806000806101000a81548173ffffffffffffffffffffffffffffffffffffffff021916908373ffffffffffffffffffffffffffffffffffffffff16021790555050565b60006002600183815481106116105761160f611db2565b5b90600052602060002090600702016005015461162c9190611ef9565b431061163b5760019050611640565b600090505b919050565b6040518060e001604052806060815260200160608152602001600081526020016000815260200160008152602001600081526020016000151581525090565b8280548282559060005260206000209081019282156116fd579160200282015b828111156116fc5782518260006101000a81548173ffffffffffffffffffffffffffffffffffffffff021916908373ffffffffffffffffffffffffffffffffffffffff160217905550916020019190600101906116a4565b5b50905061170a919061175b565b5090565b82805482825590600052602060002090810192821561174a579160200282015b8281111561174957825182559160200191906001019061172e565b5b509050611757919061175b565b5090565b5b8082111561177457600081600090555060010161175c565b5090565b600080fd5b6000819050919050565b6117908161177d565b811461179b57600080fd5b50565b6000813590506117ad81611787565b92915050565b6000602082840312156117c9576117c8611778565b5b60006117d78482850161179e565b91505092915050565b600081519050919050565b600082825260208201905092915050565b6000819050602082019050919050565b600073ffffffffffffffffffffffffffffffffffffffff82169050919050565b60006118378261180c565b9050919050565b6118478161182c565b82525050565b6000611859838361183e565b60208301905092915050565b6000602082019050919050565b600061187d826117e0565b61188781856117eb565b9350611892836117fc565b8060005b838110156118c35781516118aa888261184d565b97506118b583611865565b925050600181019050611896565b5085935050505092915050565b600081519050919050565b600082825260208201905092915050565b6000819050602082019050919050565b6119058161177d565b82525050565b600061191783836118fc565b60208301905092915050565b6000602082019050919050565b600061193b826118d0565b61194581856118db565b9350611950836118ec565b8060005b83811015611981578151611968888261190b565b975061197383611923565b925050600181019050611954565b5085935050505092915050565b60008115159050919050565b6119a38161198e565b82525050565b600060e08301600083015184820360008601526119c68282611872565b915050602083015184820360208601526119e08282611930565b91505060408301516119f560408601826118fc565b506060830151611a0860608601826118fc565b506080830151611a1b60808601826118fc565b5060a0830151611a2e60a08601826118fc565b5060c0830151611a4160c086018261199a565b508091505092915050565b60006020820190508181036000830152611a6681846119a9565b905092915050565b611a778161177d565b82525050565b6000602082019050611a926000830184611a6e565b92915050565b611aa18161198e565b82525050565b600060a082019050611abc6000830188611a6e565b611ac96020830187611a6e565b611ad66040830186611a6e565b611ae36060830185611a6e565b611af06080830184611a98565b9695505050505050565b611b038161182c565b82525050565b6000602082019050611b1e6000830184611afa565b92915050565b60008060408385031215611b3b57611b3a611778565b5b6000611b498582860161179e565b9250506020611b5a8582860161179e565b9150509250929050565b6000602082019050611b796000830184611a98565b92915050565b600081519050919050565b600082825260208201905092915050565b6000819050602082019050919050565b600060e0830160008301518482036000860152611bc88282611872565b91505060208301518482036020860152611be28282611930565b9150506040830151611bf760408601826118fc565b506060830151611c0a60608601826118fc565b506080830151611c1d60808601826118fc565b5060a0830151611c3060a08601826118fc565b5060c0830151611c4360c086018261199a565b508091505092915050565b6000611c5a8383611bab565b905092915050565b6000602082019050919050565b6000611c7a82611b7f565b611c848185611b8a565b935083602082028501611c9685611b9b565b8060005b85811015611cd25784840389528151611cb38582611c4e565b9450611cbe83611c62565b925060208a01995050600181019050611c9a565b50829750879550505050505092915050565b60006020820190508181036000830152611cfe8184611c6f565b905092915050565b600080600060608486031215611d1f57611d1e611778565b5b6000611d2d8682870161179e565b9350506020611d3e8682870161179e565b9250506040611d4f8682870161179e565b9150509250925092565b611d628161182c565b8114611d6d57600080fd5b50565b600081359050611d7f81611d59565b92915050565b600060208284031215611d9b57611d9a611778565b5b6000611da984828501611d70565b91505092915050565b7f4e487b7100000000000000000000000000000000000000000000000000000000600052603260045260246000fd5b600082825260208201905092915050565b7f496e636f727265637420696e6465782070617373656400000000000000000000600082015250565b6000611e28601683611de1565b9150611e3382611df2565b602082019050919050565b60006020820190508181036000830152611e5781611e1b565b9050919050565b7f54686973206c6f747465727920697320636c6f73656400000000000000000000600082015250565b6000611e94601683611de1565b9150611e9f82611e5e565b602082019050919050565b60006020820190508181036000830152611ec381611e87565b9050919050565b7f4e487b7100000000000000000000000000000000000000000000000000000000600052601160045260246000fd5b6000611f048261177d565b9150611f0f8361177d565b9250827fffffffffffffffffffffffffffffffffffffffffffffffffffffffffffffffff03821115611f4457611f43611eca565b5b828201905092915050565b7f4e487b7100000000000000000000000000000000000000000000000000000000600052601260045260246000fd5b6000611f898261177d565b9150611f948361177d565b925082611fa457611fa3611f4f565b5b828206905092915050565b6000611fba8261177d565b91507fffffffffffffffffffffffffffffffffffffffffffffffffffffffffffffffff821415611fed57611fec611eca565b5b600182019050919050565b7f4c6f7474657279206e6f742063757272656e746c79207769746864726177616260008201527f6c65000000000000000000000000000000000000000000000000000000000000602082015250565b6000612054602283611de1565b915061205f82611ff8565b604082019050919050565b6000602082019050818103600083015261208381612047565b9050919050565b7f546865206c6f74746572792068617320746f206c617374206174206c6561737460008201527f20313020626c6f636b7300000000000000000000000000000000000000000000602082015250565b60006120e6602a83611de1565b91506120f18261208a565b604082019050919050565b60006020820190508181036000830152612115816120d9565b9050919050565b60006121278261177d565b91506121328361177d565b92508282101561214557612144611eca565b5b828203905092915050565b7f4f76657272756e20746f6c6572616e6365206578636565646564000000000000600082015250565b6000612186601a83611de1565b915061219182612150565b602082019050919050565b600060208201905081810360008301526121b581612179565b9050919050565b60006060820190506121d16000830186611a6e565b6121de6020830185611afa565b6121eb6040830184611a6e565b94935050505056fea2646970667358221220245345a61f0d46f1a1907edcffeb857fcdbc46fc57820125afd3a1f8fdd0153664736f6c634300080a0033",
  "immutableReferences": {},
  "source": "// SPDX-License-Identifier: MIT\npragma solidity >=0.7.0 <0.9.0;\n\nimport \"./Ownable.sol\";\n\ncontract Loterie2 is Ownable {\n\n  struct Lottery {\n    address[] addrs;\n    uint[] amounts;\n\n    uint total_amount;\n    uint max_amount;\n    uint exceeding_tolerance;\n    uint lock_block;\n\n    bool is_dropped;\n  }\n\n  Lottery[] public lotteries;\n\n  event LotteryCreated(\n    uint index\n  );\n\n  event Participation(\n    uint index,\n    address participant,\n    uint value\n  );\n\n  function create_lottery(uint max_amount, uint exceeding_tolerance, uint duration_in_blocks) public {\n    require(duration_in_blocks > 9, \"The lottery has to last at least 10 blocks\");\n    Lottery memory l;\n    l.total_amount = 0;\n    l.max_amount = max_amount;\n    l.lock_block = block.number + duration_in_blocks;\n    l.exceeding_tolerance = exceeding_tolerance;\n    l.is_dropped = false;\n\n    lotteries.push(l);\n\n    emit LotteryCreated(lotteries.length - 1);\n  }\n\n  function participate(uint index) public payable {\n    require(is_index_valid(index), \"Incorrect index passed\");\n    require(is_lottery_playable(index), \"This lottery is closed\");\n    require(is_not_exceeding_tolerence(index, msg.value), \"Overrun tolerance exceeded\");\n    lotteries[index].addrs.push(msg.sender);\n    lotteries[index].amounts.push(msg.value);\n    lotteries[index].total_amount += msg.value;\n    if (!is_lottery_playable(index)) {\n      lotteries[index].lock_block = block.number;\n    }\n    emit Participation(index, msg.sender, msg.value);\n  }\n\n  function withdraw_gains(uint index) public {\n    require(is_index_valid(index), \"Incorrect index passed\");\n    require(is_lottery_withdrawable(index), \"This lottery is closed\");\n\n    uint winner_wei = uint(blockhash(lotteries[index].lock_block + 2)) % lotteries[index].total_amount;\n    uint current_wei = 0;\n\n    for (uint i = 0; i < lotteries[index].addrs.length; i++){\n      current_wei += lotteries[index].amounts[i];\n      if (current_wei >= winner_wei) {\n        payable(lotteries[index].addrs[i]).transfer(lotteries[index].total_amount);\n        break;\n      }\n    }\n    lotteries[index].is_dropped = true;\n  }\n\n  function is_index_valid(uint index) public view returns(bool){\n    if (index < 0) {\n      return false;\n    }\n    else if (index >= get_lottery_count()){\n      return false;\n    }\n    else if (lotteries[index].is_dropped){\n      return false;\n    }\n    else {\n      return true;\n    }\n  }\n\n  function is_lottery_playable(uint index) public view returns(bool){\n    if (block.number < lotteries[index].lock_block && lotteries[index].total_amount < lotteries[index].max_amount) {\n      return true;\n    }\n    else {\n      return false;\n    }\n  }\n\n  function is_lottery_withdrawable(uint index) public view returns(bool){\n    if (block.number >= lotteries[index].lock_block + 2) {\n      return true;\n    }\n    else {\n      return false;\n    }\n  }\n\n  function is_not_exceeding_tolerence(uint index, uint value) public view returns(bool){\n    uint total_amount_temp = lotteries[index].total_amount + value;\n    uint max_amount_whith_tolerance = lotteries[index].max_amount + lotteries[index].exceeding_tolerance;\n    if (total_amount_temp <= max_amount_whith_tolerance) {\n      return true;\n    }\n    else {\n      return false;\n    }\n  }\n\n  function get_winner(uint index) public view returns(address) {\n    require(is_index_valid(index), \"Incorrect index passed\");\n    require(is_lottery_withdrawable(index), \"Lottery not currently withdrawable\");\n    \n    uint winner_wei = uint(blockhash(lotteries[index].lock_block + 2)) % lotteries[index].total_amount;\n    uint current_wei = 0;\n\n    for (uint i = 0; i < lotteries[index].addrs.length; i++){\n      current_wei += lotteries[index].amounts[i];\n      if (current_wei >= winner_wei) {\n        return lotteries[index].addrs[i];\n      }\n    }\n    return address(this);\n  }\n\n  function get_lottery_lock_block(uint index) public view returns(uint) {\n    return lotteries[index].lock_block;\n  }\n\n  function get_lottery_participants_number(uint index) public view returns(uint) {\n    return lotteries[index].addrs.length;\n  }\n\n  function get_lottery_total_amount(uint index) public view returns(uint) {\n    return lotteries[index].total_amount;\n  }\n\n  function was_lottery_dropped(uint index) public view returns(bool) {\n    return lotteries[index].is_dropped;\n  }\n\n  function get_lottery_count() public view returns(uint) {\n    return lotteries.length;\n  }\n\n  function get_lotteries() public view returns(Lottery[] memory) {\n    return lotteries;\n  }\n\n  function get_lottery(uint index) public view returns(Lottery memory) {\n    return lotteries[index];\n  }\n\n  // This function is just here to showcase ownership.\n  function withdraw() public isOwner {\n    payable(owner).transfer(address(this).balance);\n  }\n}\n",
  "sourcePath": "/home/quentin/code/Loterie/contracts/Loterie2.sol",
  "compiler": {
    "name": "solc",
    "version": "0.8.10+commit.fc410830.Emscripten.clang"
  },
  "schemaVersion": "3.4.3",
  "updatedAt": "2021-12-25T13:00:45.800Z",
  "networkType": "ethereum",
  "devdoc": {
    "kind": "dev",
    "methods": {},
    "version": 1
  },
  "userdoc": {
    "kind": "user",
    "methods": {},
    "version": 1
  }
}