{
  "contractName": "Loterie",
  "abi": [
    {
      "anonymous": false,
      "inputs": [
        {
          "indexed": true,
          "internalType": "address",
          "name": "previousOwner",
          "type": "address"
        },
        {
          "indexed": true,
          "internalType": "address",
          "name": "newOwner",
          "type": "address"
        }
      ],
      "name": "OwnershipTransferred",
      "type": "event"
    },
    {
      "inputs": [],
      "name": "getOwner",
      "outputs": [
        {
          "internalType": "address",
          "name": "",
          "type": "address"
        }
      ],
      "stateMutability": "view",
      "type": "function",
      "constant": true
    },
    {
      "inputs": [],
      "name": "lockBlock",
      "outputs": [
        {
          "internalType": "uint256",
          "name": "",
          "type": "uint256"
        }
      ],
      "stateMutability": "view",
      "type": "function",
      "constant": true
    },
    {
      "inputs": [],
      "name": "lotteryState",
      "outputs": [
        {
          "internalType": "enum Loterie.LState",
          "name": "",
          "type": "uint8"
        }
      ],
      "stateMutability": "view",
      "type": "function",
      "constant": true
    },
    {
      "inputs": [],
      "name": "owner",
      "outputs": [
        {
          "internalType": "address",
          "name": "",
          "type": "address"
        }
      ],
      "stateMutability": "view",
      "type": "function",
      "constant": true
    },
    {
      "inputs": [
        {
          "internalType": "uint256",
          "name": "",
          "type": "uint256"
        }
      ],
      "name": "participantList",
      "outputs": [
        {
          "internalType": "address",
          "name": "",
          "type": "address"
        }
      ],
      "stateMutability": "view",
      "type": "function",
      "constant": true
    },
    {
      "inputs": [
        {
          "internalType": "address",
          "name": "newOwner",
          "type": "address"
        }
      ],
      "name": "transferOwnership",
      "outputs": [],
      "stateMutability": "nonpayable",
      "type": "function"
    },
    {
      "inputs": [],
      "name": "participate",
      "outputs": [],
      "stateMutability": "payable",
      "type": "function",
      "payable": true
    },
    {
      "inputs": [],
      "name": "lock",
      "outputs": [],
      "stateMutability": "nonpayable",
      "type": "function"
    },
    {
      "inputs": [],
      "name": "withdrawGains",
      "outputs": [],
      "stateMutability": "nonpayable",
      "type": "function"
    },
    {
      "inputs": [],
      "name": "getWinner",
      "outputs": [
        {
          "internalType": "address",
          "name": "",
          "type": "address"
        }
      ],
      "stateMutability": "view",
      "type": "function",
      "constant": true
    },
    {
      "inputs": [],
      "name": "getState",
      "outputs": [
        {
          "internalType": "enum Loterie.LState",
          "name": "",
          "type": "uint8"
        }
      ],
      "stateMutability": "view",
      "type": "function",
      "constant": true
    },
    {
      "inputs": [],
      "name": "getLockBlock",
      "outputs": [
        {
          "internalType": "uint256",
          "name": "",
          "type": "uint256"
        }
      ],
      "stateMutability": "view",
      "type": "function",
      "constant": true
    },
    {
      "inputs": [],
      "name": "getParticipantCount",
      "outputs": [
        {
          "internalType": "uint256",
          "name": "",
          "type": "uint256"
        }
      ],
      "stateMutability": "view",
      "type": "function",
      "constant": true
    }
  ],
  "bytecode": "0x60806040526000600360006101000a81548160ff0219169083600181111561002a57610029610081565b5b021790555034801561003b57600080fd5b50336000806101000a81548173ffffffffffffffffffffffffffffffffffffffff021916908373ffffffffffffffffffffffffffffffffffffffff1602179055506100b0565b7f4e487b7100000000000000000000000000000000000000000000000000000000600052602160045260246000fd5b610b0d806100bf6000396000f3fe6080604052600436106100c25760003560e01c8063893d20e81161007f578063ad60572911610059578063ad60572914610248578063d11711a214610273578063f2fde38b1461027d578063f83d08ba146102a6576100c2565b8063893d20e8146101c75780638da5cb5b146101f25780638e7ea5b21461021d576100c2565b80630e6fdaa1146100c75780631865c57d14610104578063483f02191461012f5780634a63b3d314610146578063560ad134146101715780636939864b1461019c575b600080fd5b3480156100d357600080fd5b506100ee60048036038101906100e99190610825565b6102bd565b6040516100fb9190610893565b60405180910390f35b34801561011057600080fd5b506101196102fc565b6040516101269190610925565b60405180910390f35b34801561013b57600080fd5b50610144610313565b005b34801561015257600080fd5b5061015b6103fb565b604051610168919061094f565b60405180910390f35b34801561017d57600080fd5b50610186610401565b604051610193919061094f565b60405180910390f35b3480156101a857600080fd5b506101b161044a565b6040516101be9190610925565b60405180910390f35b3480156101d357600080fd5b506101dc61045d565b6040516101e99190610893565b60405180910390f35b3480156101fe57600080fd5b50610207610486565b6040516102149190610893565b60405180910390f35b34801561022957600080fd5b506102326104aa565b60405161023f9190610893565b60405180910390f35b34801561025457600080fd5b5061025d610511565b60405161026a919061094f565b60405180910390f35b61027b61051e565b005b34801561028957600080fd5b506102a4600480360381019061029f9190610996565b6105d7565b005b3480156102b257600080fd5b506102bb610726565b005b600181815481106102cd57600080fd5b906000526020600020016000915054906101000a900473ffffffffffffffffffffffffffffffffffffffff1681565b6000600360009054906101000a900460ff16905090565b600180811115610326576103256108ae565b5b600360009054906101000a900460ff166001811115610348576103476108ae565b5b1461035257600080fd5b6002805461036091906109f2565b43101561036c57600080fd5b6000600360006101000a81548160ff02191690836001811115610392576103916108ae565b5b021790555061039f6104aa565b73ffffffffffffffffffffffffffffffffffffffff166108fc479081150290604051600060405180830381858888f193505050501580156103e4573d6000803e3d6000fd5b50600260009055600160006103f991906107ac565b565b60025481565b6000600180811115610416576104156108ae565b5b600360009054906101000a900460ff166001811115610438576104376108ae565b5b1461044257600080fd5b600254905090565b600360009054906101000a900460ff1681565b60008060009054906101000a900473ffffffffffffffffffffffffffffffffffffffff16905090565b60008054906101000a900473ffffffffffffffffffffffffffffffffffffffff1681565b60006001808054905060016002546104c291906109f2565b4060001c6104d09190610a77565b815481106104e1576104e0610aa8565b5b9060005260206000200160009054906101000a900473ffffffffffffffffffffffffffffffffffffffff16905090565b6000600180549050905090565b60006001811115610532576105316108ae565b5b600360009054906101000a900460ff166001811115610554576105536108ae565b5b1461055e57600080fd5b662386f26fc1000034101561057257600080fd5b6001339080600181540180825580915050600190039060005260206000200160009091909190916101000a81548173ffffffffffffffffffffffffffffffffffffffff021916908373ffffffffffffffffffffffffffffffffffffffff160217905550565b60008054906101000a900473ffffffffffffffffffffffffffffffffffffffff1673ffffffffffffffffffffffffffffffffffffffff163373ffffffffffffffffffffffffffffffffffffffff161461062f57600080fd5b600073ffffffffffffffffffffffffffffffffffffffff168173ffffffffffffffffffffffffffffffffffffffff16141561066957600080fd5b8073ffffffffffffffffffffffffffffffffffffffff1660008054906101000a900473ffffffffffffffffffffffffffffffffffffffff1673ffffffffffffffffffffffffffffffffffffffff167f8be0079c531659141344cd1fd0a4f28419497f9722a3daafe3b4186f6b6457e060405160405180910390a3806000806101000a81548173ffffffffffffffffffffffffffffffffffffffff021916908373ffffffffffffffffffffffffffffffffffffffff16021790555050565b6000600181111561073a576107396108ae565b5b600360009054906101000a900460ff16600181111561075c5761075b6108ae565b5b1461076657600080fd5b60018080549050101561077857600080fd5b6001600360006101000a81548160ff0219169083600181111561079e5761079d6108ae565b5b021790555043600281905550565b50805460008255906000526020600020908101906107ca91906107cd565b50565b5b808211156107e65760008160009055506001016107ce565b5090565b600080fd5b6000819050919050565b610802816107ef565b811461080d57600080fd5b50565b60008135905061081f816107f9565b92915050565b60006020828403121561083b5761083a6107ea565b5b600061084984828501610810565b91505092915050565b600073ffffffffffffffffffffffffffffffffffffffff82169050919050565b600061087d82610852565b9050919050565b61088d81610872565b82525050565b60006020820190506108a86000830184610884565b92915050565b7f4e487b7100000000000000000000000000000000000000000000000000000000600052602160045260246000fd5b600281106108ee576108ed6108ae565b5b50565b60008190506108ff826108dd565b919050565b600061090f826108f1565b9050919050565b61091f81610904565b82525050565b600060208201905061093a6000830184610916565b92915050565b610949816107ef565b82525050565b60006020820190506109646000830184610940565b92915050565b61097381610872565b811461097e57600080fd5b50565b6000813590506109908161096a565b92915050565b6000602082840312156109ac576109ab6107ea565b5b60006109ba84828501610981565b91505092915050565b7f4e487b7100000000000000000000000000000000000000000000000000000000600052601160045260246000fd5b60006109fd826107ef565b9150610a08836107ef565b9250827fffffffffffffffffffffffffffffffffffffffffffffffffffffffffffffffff03821115610a3d57610a3c6109c3565b5b828201905092915050565b7f4e487b7100000000000000000000000000000000000000000000000000000000600052601260045260246000fd5b6000610a82826107ef565b9150610a8d836107ef565b925082610a9d57610a9c610a48565b5b828206905092915050565b7f4e487b7100000000000000000000000000000000000000000000000000000000600052603260045260246000fdfea264697066735822122029dbfd63a0638e435131f6d29311f3c3d5858591a2c04ccb3b30cee979c81edd64736f6c634300080a0033",
  "immutableReferences": {},
  "source": "// SPDX-License-Identifier: MIT\npragma solidity >=0.7.0 <0.9.0;\n\nimport \"./Ownable.sol\";\n\ncontract Loterie is Ownable {\n    /* \n    Here's how it works:\n        - N participants contribute 1 eth each via the `participate()` function\n        - A participant calls the `lock()` function, no one else can contribute for that round\n        - In the next block, the winner can call the `collect()` function to get his winnings.\n    */\n\n    uint256 constant PARTICIPATION_FEE = 10000000000000000; // = 0.01 eth\n\n    enum LState {\n        Open,\n        Locked\n    }\n\n    // list of the msg.sender.address of the participants\n    address[] public participantList;\n\n    uint256 public lockBlock;\n\n    LState public lotteryState = LState.Open;\n\n    function participate() public payable {\n        require(lotteryState == LState.Open);\n        require(msg.value >= PARTICIPATION_FEE);\n        participantList.push(msg.sender);\n    }\n\n    function lock() public {\n        require(lotteryState == LState.Open);\n        require(participantList.length >= 1);\n        lotteryState = LState.Locked;\n        lockBlock = block.number;\n    }\n\n    function withdrawGains() public {\n        require(lotteryState == LState.Locked);\n        require(block.number >= lockBlock + 2);\n\n        lotteryState = LState.Open;\n        \n        payable(getWinner()).transfer(address(this).balance);\n        delete lockBlock;\n        delete participantList;\n    }\n\n\n    // getters\n    function getWinner() public view returns (address) {\n        return participantList[uint256(blockhash(lockBlock+1)) % participantList.length];\n    }\n    \n    function getState() public view returns (LState) {\n        return lotteryState;\n    }\n\n    function getLockBlock() public view returns (uint256) {\n        require(lotteryState == LState.Locked);\n        return lockBlock;\n    }\n\n    function getParticipantCount() public view returns (uint256) {\n        return participantList.length;\n    }\n    \n}\n",
  "sourcePath": "/home/quentin/code/Loterie/contracts/Loterie.sol",
  "compiler": {
    "name": "solc",
    "version": "0.8.10+commit.fc410830.Emscripten.clang"
  },
  "schemaVersion": "3.4.3",
  "updatedAt": "2021-12-25T13:00:45.153Z",
  "networkType": "ethereum",
  "devdoc": {
    "kind": "dev",
    "methods": {},
    "version": 1
  },
  "userdoc": {
    "kind": "user",
    "methods": {},
    "version": 1
  }
}