{
  "contractName": "Roulette",
  "abi": [
    {
      "anonymous": false,
      "inputs": [
        {
          "indexed": true,
          "internalType": "address",
          "name": "from",
          "type": "address"
        },
        {
          "indexed": false,
          "internalType": "uint256",
          "name": "value",
          "type": "uint256"
        },
        {
          "indexed": false,
          "internalType": "uint256",
          "name": "block_number",
          "type": "uint256"
        },
        {
          "indexed": false,
          "internalType": "uint8",
          "name": "number",
          "type": "uint8"
        },
        {
          "indexed": false,
          "internalType": "uint256",
          "name": "id",
          "type": "uint256"
        }
      ],
      "name": "BidCreated",
      "type": "event"
    },
    {
      "inputs": [],
      "name": "deposit",
      "outputs": [],
      "stateMutability": "payable",
      "type": "function",
      "payable": true
    },
    {
      "inputs": [
        {
          "internalType": "uint8",
          "name": "roulette_number",
          "type": "uint8"
        }
      ],
      "name": "play",
      "outputs": [],
      "stateMutability": "payable",
      "type": "function",
      "payable": true
    },
    {
      "inputs": [
        {
          "internalType": "uint256",
          "name": "id",
          "type": "uint256"
        }
      ],
      "name": "get_block_number",
      "outputs": [
        {
          "internalType": "uint256",
          "name": "",
          "type": "uint256"
        }
      ],
      "stateMutability": "view",
      "type": "function",
      "constant": true
    },
    {
      "inputs": [
        {
          "internalType": "uint256",
          "name": "id",
          "type": "uint256"
        }
      ],
      "name": "get_winning_number",
      "outputs": [
        {
          "internalType": "uint256",
          "name": "",
          "type": "uint256"
        }
      ],
      "stateMutability": "view",
      "type": "function",
      "constant": true
    },
    {
      "inputs": [
        {
          "internalType": "uint256",
          "name": "id",
          "type": "uint256"
        }
      ],
      "name": "won",
      "outputs": [
        {
          "internalType": "bool",
          "name": "",
          "type": "bool"
        },
        {
          "internalType": "uint256",
          "name": "",
          "type": "uint256"
        }
      ],
      "stateMutability": "view",
      "type": "function",
      "constant": true
    },
    {
      "inputs": [],
      "name": "calculate_winnings",
      "outputs": [
        {
          "internalType": "uint256",
          "name": "",
          "type": "uint256"
        }
      ],
      "stateMutability": "view",
      "type": "function",
      "constant": true
    },
    {
      "inputs": [],
      "name": "get_winnings",
      "outputs": [],
      "stateMutability": "nonpayable",
      "type": "function"
    }
  ],
  "bytecode": "0x608060405234801561001057600080fd5b50610ce7806100206000396000f3fe6080604052600436106100705760003560e01c806353a04b051161004e57806353a04b051461012d578063d0e30db014610149578063e8e42d7114610153578063ee1b0cd21461016a57610070565b80630482d3db146100755780630f466117146100b257806338d4d0dd146100f0575b600080fd5b34801561008157600080fd5b5061009c6004803603810190610097919061082b565b610195565b6040516100a99190610867565b60405180910390f35b3480156100be57600080fd5b506100d960048036038101906100d4919061082b565b610200565b6040516100e792919061089d565b60405180910390f35b3480156100fc57600080fd5b506101176004803603810190610112919061082b565b610370565b6040516101249190610867565b60405180910390f35b610147600480360381019061014291906108ff565b6103b5565b005b610151610561565b005b34801561015f57600080fd5b50610168610563565b005b34801561017657600080fd5b5061017f61060d565b60405161018c9190610867565b60405180910390f35b60008060003373ffffffffffffffffffffffffffffffffffffffff1673ffffffffffffffffffffffffffffffffffffffff16815260200190815260200160002082815481106101e7576101e661092c565b5b9060005260206000209060030201600101549050919050565b60008060008060003373ffffffffffffffffffffffffffffffffffffffff1673ffffffffffffffffffffffffffffffffffffffff168152602001908152602001600020805480602002602001604051908101604052809291908181526020016000905b828210156102c6578382906000526020600020906003020160405180606001604052908160008201548152602001600182015481526020016002820160009054906101000a900460ff1660ff1660ff168152505081526020019060010190610263565b5050505090508051841061030f576040517f08c379a0000000000000000000000000000000000000000000000000000000008152600401610306906109b8565b60405180910390fd5b8084815181106103225761032161092c565b5b60200260200101516040015160ff1661033a85610370565b1460128286815181106103505761034f61092c565b5b6020026020010151600001516103669190610a07565b9250925050915091565b60004361037c83610195565b1061038657600080fd5b600160246103949190610a61565b60ff166103a083610195565b4060001c6103ae9190610ac7565b9050919050565b80602460ff168160ff161115610400576040517f08c379a00000000000000000000000000000000000000000000000000000000081526004016103f790610b6a565b60405180910390fd5b6000803373ffffffffffffffffffffffffffffffffffffffff1673ffffffffffffffffffffffffffffffffffffffff16815260200190815260200160002060405180606001604052803481526020014381526020018460ff168152509080600181540180825580915050600190039060005260206000209060030201600090919091909150600082015181600001556020820151816001015560408201518160020160006101000a81548160ff021916908360ff16021790555050503373ffffffffffffffffffffffffffffffffffffffff167f38983d2f04d8b73cf25327ee8d943e8c2ae0c94c4c2f3df844824e5e2cad8eb934438560016000803373ffffffffffffffffffffffffffffffffffffffff1673ffffffffffffffffffffffffffffffffffffffff168152602001908152602001600020805490506105459190610b8a565b6040516105559493929190610bcd565b60405180910390a25050565b565b600061056d61060d565b905060008111156105c0573373ffffffffffffffffffffffffffffffffffffffff166108fc829081150290604051600060405180830381858888f193505050501580156105be573d6000803e3d6000fd5b505b6000803373ffffffffffffffffffffffffffffffffffffffff1673ffffffffffffffffffffffffffffffffffffffff168152602001908152602001600020600061060a9190610791565b50565b6000806000803373ffffffffffffffffffffffffffffffffffffffff1673ffffffffffffffffffffffffffffffffffffffff168152602001908152602001600020805480602002602001604051908101604052809291908181526020016000905b828210156106d1578382906000526020600020906003020160405180606001604052908160008201548152602001600182015481526020016002820160009054906101000a900460ff1660ff1660ff16815250508152602001906001019061066e565b5050505090506000805b825181101561078857438382815181106106f8576106f761092c565b5b60200260200101516020015111156107755782818151811061071d5761071c61092c565b5b60200260200101516040015160ff1661073582610370565b14156107745760128382815181106107505761074f61092c565b5b6020026020010151600001516107669190610a07565b826107719190610c12565b91505b5b808061078090610c68565b9150506106db565b50809250505090565b50805460008255600302906000526020600020908101906107b291906107b5565b50565b5b808211156107ec5760008082016000905560018201600090556002820160006101000a81549060ff0219169055506003016107b6565b5090565b600080fd5b6000819050919050565b610808816107f5565b811461081357600080fd5b50565b600081359050610825816107ff565b92915050565b600060208284031215610841576108406107f0565b5b600061084f84828501610816565b91505092915050565b610861816107f5565b82525050565b600060208201905061087c6000830184610858565b92915050565b60008115159050919050565b61089781610882565b82525050565b60006040820190506108b2600083018561088e565b6108bf6020830184610858565b9392505050565b600060ff82169050919050565b6108dc816108c6565b81146108e757600080fd5b50565b6000813590506108f9816108d3565b92915050565b600060208284031215610915576109146107f0565b5b6000610923848285016108ea565b91505092915050565b7f4e487b7100000000000000000000000000000000000000000000000000000000600052603260045260246000fd5b600082825260208201905092915050565b7f496e636f72726563742069640000000000000000000000000000000000000000600082015250565b60006109a2600c8361095b565b91506109ad8261096c565b602082019050919050565b600060208201905081810360008301526109d181610995565b9050919050565b7f4e487b7100000000000000000000000000000000000000000000000000000000600052601160045260246000fd5b6000610a12826107f5565b9150610a1d836107f5565b9250817fffffffffffffffffffffffffffffffffffffffffffffffffffffffffffffffff0483118215151615610a5657610a556109d8565b5b828202905092915050565b6000610a6c826108c6565b9150610a77836108c6565b92508260ff03821115610a8d57610a8c6109d8565b5b828201905092915050565b7f4e487b7100000000000000000000000000000000000000000000000000000000600052601260045260246000fd5b6000610ad2826107f5565b9150610add836107f5565b925082610aed57610aec610a98565b5b828206905092915050565b7f546865206e756d626572206973206e6f7420612076616c696420526f756c657460008201527f7465206e756d6265720000000000000000000000000000000000000000000000602082015250565b6000610b5460298361095b565b9150610b5f82610af8565b604082019050919050565b60006020820190508181036000830152610b8381610b47565b9050919050565b6000610b95826107f5565b9150610ba0836107f5565b925082821015610bb357610bb26109d8565b5b828203905092915050565b610bc7816108c6565b82525050565b6000608082019050610be26000830187610858565b610bef6020830186610858565b610bfc6040830185610bbe565b610c096060830184610858565b95945050505050565b6000610c1d826107f5565b9150610c28836107f5565b9250827fffffffffffffffffffffffffffffffffffffffffffffffffffffffffffffffff03821115610c5d57610c5c6109d8565b5b828201905092915050565b6000610c73826107f5565b91507fffffffffffffffffffffffffffffffffffffffffffffffffffffffffffffffff821415610ca657610ca56109d8565b5b60018201905091905056fea264697066735822122060c4e846befcc6d720d4eb829fc15d899ea1aac9cf0393338c0c17dfa7bd5abf64736f6c634300080a0033",
  "immutableReferences": {},
  "source": "// SPDX-License-Identifier: GPL-3.0\n\npragma solidity >=0.7.0 <0.9.0;\n\n\ncontract Roulette {\n\n    // Roulettes go from 0 to 36 included\n    uint8 constant biggest_number = 36;\n\n    modifier is_valid_number(uint8 nb) {\n        require(nb <= biggest_number, \"The number is not a valid Roulette number\");\n        _;\n    }\n\n    struct Bid {\n        uint256 value;\n        uint256 block_number;\n        uint8 number;\n    }\n\n    event BidCreated(\n        address indexed from,\n        uint256 value,\n        uint256 block_number,\n        uint8 number,\n        uint256 id\n    );\n\n    // Each address can play several times\n    mapping (address => Bid[]) bids;\n\n    // The roulette may require funds\n    function deposit() public payable {}\n\n    function play(uint8 roulette_number) public payable is_valid_number(roulette_number) {\n        bids[msg.sender].push(Bid(msg.value, block.number, roulette_number));\n\n        emit BidCreated(msg.sender, msg.value, block.number, roulette_number, bids[msg.sender].length - 1);\n    }\n\n    function get_block_number(uint256 id) public view returns(uint256) {\n        return bids[msg.sender][id].block_number;\n    }\n\n    function get_winning_number(uint256 id) public view returns(uint256) {\n        require(get_block_number(id) < block.number);\n        return (uint256(blockhash(get_block_number(id))) % uint256(biggest_number + 1));\n    }\n\n    function won(uint256 id) public view returns(bool, uint256) {\n        Bid[] memory b = bids[msg.sender];\n        require(id < b.length, \"Incorrect id\");\n        return (get_winning_number(id) == b[id].number, b[id].value * 18);\n    }\n\n    function calculate_winnings() public view returns(uint256) {\n        Bid[] memory b = bids[msg.sender];\n        uint256 winnings = 0;\n        for (uint i = 0; i < b.length; i++) {\n            if(b[i].block_number > block.number) {\n                if(get_winning_number(i) == b[i].number) {\n                    winnings += b[i].value * 18;\n                }\n            }\n        }\n        return winnings;\n    }\n\n    function get_winnings() public {\n        uint256 winnings = calculate_winnings();\n        if(winnings > 0) {\n            payable(msg.sender).transfer(winnings);\n        }\n\n        // calculate_winning will fail if the player bade in the same block\n        // we can thus safely delete all bids\n        delete bids[msg.sender];\n    }\n\n}\n",
  "sourcePath": "/home/quentin/code/Loterie/contracts/Roulette.sol",
  "compiler": {
    "name": "solc",
    "version": "0.8.10+commit.fc410830.Emscripten.clang"
  },
  "schemaVersion": "3.4.3",
  "updatedAt": "2021-12-25T13:00:45.423Z",
  "networkType": "ethereum",
  "devdoc": {
    "kind": "dev",
    "methods": {},
    "version": 1
  },
  "userdoc": {
    "kind": "user",
    "methods": {},
    "version": 1
  }
}