{
  "contractName": "Roulette",
  "abi": [
    {
      "anonymous": false,
      "inputs": [
        {
          "indexed": true,
          "internalType": "address",
          "name": "from",
          "type": "address"
        },
        {
          "indexed": false,
          "internalType": "uint256",
          "name": "value",
          "type": "uint256"
        },
        {
          "indexed": false,
          "internalType": "uint256",
          "name": "block_number",
          "type": "uint256"
        },
        {
          "indexed": false,
          "internalType": "uint8",
          "name": "number",
          "type": "uint8"
        },
        {
          "indexed": false,
          "internalType": "uint256",
          "name": "id",
          "type": "uint256"
        }
      ],
      "name": "BidCreated",
      "type": "event"
    },
    {
      "inputs": [],
      "name": "deposit",
      "outputs": [],
      "stateMutability": "payable",
      "type": "function",
      "payable": true
    },
    {
      "inputs": [
        {
          "internalType": "uint8",
          "name": "roulette_number",
          "type": "uint8"
        }
      ],
      "name": "play",
      "outputs": [],
      "stateMutability": "payable",
      "type": "function",
      "payable": true
    },
    {
      "inputs": [
        {
          "internalType": "uint256",
          "name": "id",
          "type": "uint256"
        }
      ],
      "name": "get_block_number",
      "outputs": [
        {
          "internalType": "uint256",
          "name": "",
          "type": "uint256"
        }
      ],
      "stateMutability": "view",
      "type": "function",
      "constant": true
    },
    {
      "inputs": [
        {
          "internalType": "uint256",
          "name": "id",
          "type": "uint256"
        }
      ],
      "name": "get_winning_number",
      "outputs": [
        {
          "internalType": "uint256",
          "name": "",
          "type": "uint256"
        }
      ],
      "stateMutability": "view",
      "type": "function",
      "constant": true
    },
    {
      "inputs": [
        {
          "internalType": "uint256",
          "name": "id",
          "type": "uint256"
        }
      ],
      "name": "won",
      "outputs": [
        {
          "internalType": "bool",
          "name": "",
          "type": "bool"
        },
        {
          "internalType": "uint256",
          "name": "",
          "type": "uint256"
        }
      ],
      "stateMutability": "view",
      "type": "function",
      "constant": true
    },
    {
      "inputs": [],
      "name": "calculate_winnings",
      "outputs": [
        {
          "internalType": "uint256",
          "name": "",
          "type": "uint256"
        }
      ],
      "stateMutability": "view",
      "type": "function",
      "constant": true
    },
    {
      "inputs": [],
      "name": "get_bids",
      "outputs": [
        {
          "components": [
            {
              "internalType": "uint256",
              "name": "value",
              "type": "uint256"
            },
            {
              "internalType": "uint256",
              "name": "block_number",
              "type": "uint256"
            },
            {
              "internalType": "uint8",
              "name": "number",
              "type": "uint8"
            }
          ],
          "internalType": "struct Roulette.Bid[]",
          "name": "",
          "type": "tuple[]"
        }
      ],
      "stateMutability": "view",
      "type": "function",
      "constant": true
    },
    {
      "inputs": [],
      "name": "get_winnings",
      "outputs": [],
      "stateMutability": "nonpayable",
      "type": "function"
    }
  ],
  "bytecode": "0x608060405234801561001057600080fd5b50610ed7806100206000396000f3fe60806040526004361061007b5760003560e01c8063d0e30db01161004e578063d0e30db014610154578063e87e10dd1461015e578063e8e42d7114610189578063ee1b0cd2146101a05761007b565b80630482d3db146100805780630f466117146100bd57806338d4d0dd146100fb57806353a04b0514610138575b600080fd5b34801561008c57600080fd5b506100a760048036038101906100a291906108ea565b6101cb565b6040516100b49190610926565b60405180910390f35b3480156100c957600080fd5b506100e460048036038101906100df91906108ea565b610236565b6040516100f292919061095c565b60405180910390f35b34801561010757600080fd5b50610122600480360381019061011d91906108ea565b6103a6565b60405161012f9190610926565b60405180910390f35b610152600480360381019061014d91906109be565b6103eb565b005b61015c610597565b005b34801561016a57600080fd5b50610173610599565b6040516101809190610afa565b60405180910390f35b34801561019557600080fd5b5061019e610665565b005b3480156101ac57600080fd5b506101b561070f565b6040516101c29190610926565b60405180910390f35b60008060003373ffffffffffffffffffffffffffffffffffffffff1673ffffffffffffffffffffffffffffffffffffffff168152602001908152602001600020828154811061021d5761021c610b1c565b5b9060005260206000209060030201600101549050919050565b60008060008060003373ffffffffffffffffffffffffffffffffffffffff1673ffffffffffffffffffffffffffffffffffffffff168152602001908152602001600020805480602002602001604051908101604052809291908181526020016000905b828210156102fc578382906000526020600020906003020160405180606001604052908160008201548152602001600182015481526020016002820160009054906101000a900460ff1660ff1660ff168152505081526020019060010190610299565b50505050905080518410610345576040517f08c379a000000000000000000000000000000000000000000000000000000000815260040161033c90610ba8565b60405180910390fd5b80848151811061035857610357610b1c565b5b60200260200101516040015160ff16610370856103a6565b14600582868151811061038657610385610b1c565b5b60200260200101516000015161039c9190610bf7565b9250925050915091565b6000436103b2836101cb565b106103bc57600080fd5b6001600a6103ca9190610c51565b60ff166103d6836101cb565b4060001c6103e49190610cb7565b9050919050565b80600a60ff168160ff161115610436576040517f08c379a000000000000000000000000000000000000000000000000000000000815260040161042d90610d5a565b60405180910390fd5b6000803373ffffffffffffffffffffffffffffffffffffffff1673ffffffffffffffffffffffffffffffffffffffff16815260200190815260200160002060405180606001604052803481526020014381526020018460ff168152509080600181540180825580915050600190039060005260206000209060030201600090919091909150600082015181600001556020820151816001015560408201518160020160006101000a81548160ff021916908360ff16021790555050503373ffffffffffffffffffffffffffffffffffffffff167f38983d2f04d8b73cf25327ee8d943e8c2ae0c94c4c2f3df844824e5e2cad8eb934438560016000803373ffffffffffffffffffffffffffffffffffffffff1673ffffffffffffffffffffffffffffffffffffffff1681526020019081526020016000208054905061057b9190610d7a565b60405161058b9493929190610dbd565b60405180910390a25050565b565b60606000803373ffffffffffffffffffffffffffffffffffffffff1673ffffffffffffffffffffffffffffffffffffffff168152602001908152602001600020805480602002602001604051908101604052809291908181526020016000905b8282101561065c578382906000526020600020906003020160405180606001604052908160008201548152602001600182015481526020016002820160009054906101000a900460ff1660ff1660ff1681525050815260200190600101906105f9565b50505050905090565b600061066f61070f565b905060008111156106c2573373ffffffffffffffffffffffffffffffffffffffff166108fc829081150290604051600060405180830381858888f193505050501580156106c0573d6000803e3d6000fd5b505b6000803373ffffffffffffffffffffffffffffffffffffffff1673ffffffffffffffffffffffffffffffffffffffff168152602001908152602001600020600061070c9190610850565b50565b6000806000803373ffffffffffffffffffffffffffffffffffffffff1673ffffffffffffffffffffffffffffffffffffffff168152602001908152602001600020805480602002602001604051908101604052809291908181526020016000905b828210156107d3578382906000526020600020906003020160405180606001604052908160008201548152602001600182015481526020016002820160009054906101000a900460ff1660ff1660ff168152505081526020019060010190610770565b5050505090506000805b825181101561084757438382815181106107fa576107f9610b1c565b5b60200260200101516020015110156108345760008061081883610236565b91509150811561083157808461082e9190610e02565b93505b50505b808061083f90610e58565b9150506107dd565b50809250505090565b50805460008255600302906000526020600020908101906108719190610874565b50565b5b808211156108ab5760008082016000905560018201600090556002820160006101000a81549060ff021916905550600301610875565b5090565b600080fd5b6000819050919050565b6108c7816108b4565b81146108d257600080fd5b50565b6000813590506108e4816108be565b92915050565b600060208284031215610900576108ff6108af565b5b600061090e848285016108d5565b91505092915050565b610920816108b4565b82525050565b600060208201905061093b6000830184610917565b92915050565b60008115159050919050565b61095681610941565b82525050565b6000604082019050610971600083018561094d565b61097e6020830184610917565b9392505050565b600060ff82169050919050565b61099b81610985565b81146109a657600080fd5b50565b6000813590506109b881610992565b92915050565b6000602082840312156109d4576109d36108af565b5b60006109e2848285016109a9565b91505092915050565b600081519050919050565b600082825260208201905092915050565b6000819050602082019050919050565b610a20816108b4565b82525050565b610a2f81610985565b82525050565b606082016000820151610a4b6000850182610a17565b506020820151610a5e6020850182610a17565b506040820151610a716040850182610a26565b50505050565b6000610a838383610a35565b60608301905092915050565b6000602082019050919050565b6000610aa7826109eb565b610ab181856109f6565b9350610abc83610a07565b8060005b83811015610aed578151610ad48882610a77565b9750610adf83610a8f565b925050600181019050610ac0565b5085935050505092915050565b60006020820190508181036000830152610b148184610a9c565b905092915050565b7f4e487b7100000000000000000000000000000000000000000000000000000000600052603260045260246000fd5b600082825260208201905092915050565b7f496e636f72726563742069640000000000000000000000000000000000000000600082015250565b6000610b92600c83610b4b565b9150610b9d82610b5c565b602082019050919050565b60006020820190508181036000830152610bc181610b85565b9050919050565b7f4e487b7100000000000000000000000000000000000000000000000000000000600052601160045260246000fd5b6000610c02826108b4565b9150610c0d836108b4565b9250817fffffffffffffffffffffffffffffffffffffffffffffffffffffffffffffffff0483118215151615610c4657610c45610bc8565b5b828202905092915050565b6000610c5c82610985565b9150610c6783610985565b92508260ff03821115610c7d57610c7c610bc8565b5b828201905092915050565b7f4e487b7100000000000000000000000000000000000000000000000000000000600052601260045260246000fd5b6000610cc2826108b4565b9150610ccd836108b4565b925082610cdd57610cdc610c88565b5b828206905092915050565b7f546865206e756d626572206973206e6f7420612076616c696420526f756c657460008201527f7465206e756d6265720000000000000000000000000000000000000000000000602082015250565b6000610d44602983610b4b565b9150610d4f82610ce8565b604082019050919050565b60006020820190508181036000830152610d7381610d37565b9050919050565b6000610d85826108b4565b9150610d90836108b4565b925082821015610da357610da2610bc8565b5b828203905092915050565b610db781610985565b82525050565b6000608082019050610dd26000830187610917565b610ddf6020830186610917565b610dec6040830185610dae565b610df96060830184610917565b95945050505050565b6000610e0d826108b4565b9150610e18836108b4565b9250827fffffffffffffffffffffffffffffffffffffffffffffffffffffffffffffffff03821115610e4d57610e4c610bc8565b5b828201905092915050565b6000610e63826108b4565b91507fffffffffffffffffffffffffffffffffffffffffffffffffffffffffffffffff821415610e9657610e95610bc8565b5b60018201905091905056fea2646970667358221220af80535a7c8706265ddda1040b9f1b9a0088f07ed7879af13285a8a9c6df90bd64736f6c634300080a0033",
  "immutableReferences": {},
  "source": "// SPDX-License-Identifier: GPL-3.0\n\npragma solidity >=0.7.0 <0.9.0;\n\n\ncontract Roulette {\n\n    uint8 constant biggest_number = 10;\n\n    modifier is_valid_number(uint8 nb) {\n        require(nb <= biggest_number, \"The number is not a valid Roulette number\");\n        _;\n    }\n\n    struct Bid {\n        uint256 value;\n        uint256 block_number;\n        uint8 number;\n    }\n\n    event BidCreated(\n        address indexed from,\n        uint256 value,\n        uint256 block_number,\n        uint8 number,\n        uint256 id\n    );\n\n    // Each address can play several times\n    mapping (address => Bid[]) bids;\n\n    // The roulette may require funds\n    function deposit() public payable {}\n\n    function play(uint8 roulette_number) public payable is_valid_number(roulette_number) {\n        bids[msg.sender].push(Bid(msg.value, block.number, roulette_number));\n\n        emit BidCreated(msg.sender, msg.value, block.number, roulette_number, bids[msg.sender].length - 1);\n    }\n\n\n    function get_block_number(uint256 id) public view returns(uint256) {\n        return bids[msg.sender][id].block_number;\n    }\n\n    function get_winning_number(uint256 id) public view returns(uint256) {\n        require(get_block_number(id) < block.number);\n        return (uint256(blockhash(get_block_number(id))) % uint256(biggest_number + 1));\n    }\n\n    function won(uint256 id) public view returns(bool, uint256) {\n        Bid[] memory b = bids[msg.sender];\n        require(id < b.length, \"Incorrect id\");\n        return (get_winning_number(id) == b[id].number, b[id].value * 5);\n    }\n\n    function calculate_winnings() public view returns(uint256) {\n        Bid[] memory b = bids[msg.sender];\n        uint256 winnings = 0;\n        for (uint i = 0; i < b.length; i++) {\n            if(b[i].block_number < block.number) {\n                (bool w, uint256 a) = won(i);\n                if(w){\n                    winnings += a;\n                }\n            }\n        }\n        return winnings;\n    }\n\n    function get_bids() public view returns(Bid[] memory) {\n        return bids[msg.sender];\n    }\n\n    function get_winnings() public {\n        uint256 winnings = calculate_winnings();\n        if(winnings > 0) {\n            payable(msg.sender).transfer(winnings);\n        }\n\n        // calculate_winning will fail if the player bade in the same block\n        // we can thus safely delete all bids\n        delete bids[msg.sender];\n    }\n\n}\n",
  "sourcePath": "/home/quentin/code/Loterie/contracts/Roulette.sol",
  "compiler": {
    "name": "solc",
    "version": "0.8.10+commit.fc410830.Emscripten.clang"
  },
  "schemaVersion": "3.4.3",
  "updatedAt": "2021-12-18T21:29:10.706Z",
  "networkType": "ethereum",
  "devdoc": {
    "kind": "dev",
    "methods": {},
    "version": 1
  },
  "userdoc": {
    "kind": "user",
    "methods": {},
    "version": 1
  }
}