{
  "contractName": "Roulette",
  "abi": [
    {
      "anonymous": false,
      "inputs": [
        {
          "indexed": true,
          "internalType": "address",
          "name": "from",
          "type": "address"
        },
        {
          "indexed": false,
          "internalType": "uint256",
          "name": "value",
          "type": "uint256"
        },
        {
          "indexed": false,
          "internalType": "uint256",
          "name": "block_number",
          "type": "uint256"
        },
        {
          "indexed": false,
          "internalType": "uint8",
          "name": "number",
          "type": "uint8"
        },
        {
          "indexed": false,
          "internalType": "uint256",
          "name": "id",
          "type": "uint256"
        }
      ],
      "name": "BidCreated",
      "type": "event"
    },
    {
      "inputs": [],
      "name": "deposit",
      "outputs": [],
      "stateMutability": "payable",
      "type": "function",
      "payable": true
    },
    {
      "inputs": [
        {
          "internalType": "uint8",
          "name": "roulette_number",
          "type": "uint8"
        }
      ],
      "name": "play",
      "outputs": [],
      "stateMutability": "payable",
      "type": "function",
      "payable": true
    },
    {
      "inputs": [
        {
          "internalType": "uint256",
          "name": "id",
          "type": "uint256"
        }
      ],
      "name": "get_block_number",
      "outputs": [
        {
          "internalType": "uint256",
          "name": "",
          "type": "uint256"
        }
      ],
      "stateMutability": "view",
      "type": "function",
      "constant": true
    },
    {
      "inputs": [
        {
          "internalType": "uint256",
          "name": "id",
          "type": "uint256"
        }
      ],
      "name": "get_winning_number",
      "outputs": [
        {
          "internalType": "uint256",
          "name": "",
          "type": "uint256"
        }
      ],
      "stateMutability": "view",
      "type": "function",
      "constant": true
    },
    {
      "inputs": [
        {
          "internalType": "uint256",
          "name": "id",
          "type": "uint256"
        }
      ],
      "name": "won",
      "outputs": [
        {
          "internalType": "bool",
          "name": "",
          "type": "bool"
        },
        {
          "internalType": "uint256",
          "name": "",
          "type": "uint256"
        }
      ],
      "stateMutability": "view",
      "type": "function",
      "constant": true
    },
    {
      "inputs": [],
      "name": "test",
      "outputs": [
        {
          "internalType": "uint256",
          "name": "",
          "type": "uint256"
        }
      ],
      "stateMutability": "view",
      "type": "function",
      "constant": true
    },
    {
      "inputs": [],
      "name": "calculate_winnings",
      "outputs": [
        {
          "internalType": "uint256",
          "name": "",
          "type": "uint256"
        }
      ],
      "stateMutability": "view",
      "type": "function",
      "constant": true
    },
    {
      "inputs": [],
      "name": "get_winnings",
      "outputs": [],
      "stateMutability": "nonpayable",
      "type": "function"
    }
  ],
  "bytecode": "0x608060405234801561001057600080fd5b50610d10806100206000396000f3fe60806040526004361061007b5760003560e01c8063d0e30db01161004e578063d0e30db014610154578063e8e42d711461015e578063ee1b0cd214610175578063f8a8fd6d146101a05761007b565b80630482d3db146100805780630f466117146100bd57806338d4d0dd146100fb57806353a04b0514610138575b600080fd5b34801561008c57600080fd5b506100a760048036038101906100a29190610854565b6101cb565b6040516100b49190610890565b60405180910390f35b3480156100c957600080fd5b506100e460048036038101906100df9190610854565b610236565b6040516100f29291906108c6565b60405180910390f35b34801561010757600080fd5b50610122600480360381019061011d9190610854565b6103a6565b60405161012f9190610890565b60405180910390f35b610152600480360381019061014d9190610928565b6103eb565b005b61015c610597565b005b34801561016a57600080fd5b50610173610599565b005b34801561018157600080fd5b5061018a610643565b6040516101979190610890565b60405180910390f35b3480156101ac57600080fd5b506101b56107b1565b6040516101c29190610890565b60405180910390f35b60008060003373ffffffffffffffffffffffffffffffffffffffff1673ffffffffffffffffffffffffffffffffffffffff168152602001908152602001600020828154811061021d5761021c610955565b5b9060005260206000209060030201600101549050919050565b60008060008060003373ffffffffffffffffffffffffffffffffffffffff1673ffffffffffffffffffffffffffffffffffffffff168152602001908152602001600020805480602002602001604051908101604052809291908181526020016000905b828210156102fc578382906000526020600020906003020160405180606001604052908160008201548152602001600182015481526020016002820160009054906101000a900460ff1660ff1660ff168152505081526020019060010190610299565b50505050905080518410610345576040517f08c379a000000000000000000000000000000000000000000000000000000000815260040161033c906109e1565b60405180910390fd5b80848151811061035857610357610955565b5b60200260200101516040015160ff16610370856103a6565b14601282868151811061038657610385610955565b5b60200260200101516000015161039c9190610a30565b9250925050915091565b6000436103b2836101cb565b106103bc57600080fd5b600160246103ca9190610a8a565b60ff166103d6836101cb565b4060001c6103e49190610af0565b9050919050565b80602460ff168160ff161115610436576040517f08c379a000000000000000000000000000000000000000000000000000000000815260040161042d90610b93565b60405180910390fd5b6000803373ffffffffffffffffffffffffffffffffffffffff1673ffffffffffffffffffffffffffffffffffffffff16815260200190815260200160002060405180606001604052803481526020014381526020018460ff168152509080600181540180825580915050600190039060005260206000209060030201600090919091909150600082015181600001556020820151816001015560408201518160020160006101000a81548160ff021916908360ff16021790555050503373ffffffffffffffffffffffffffffffffffffffff167f38983d2f04d8b73cf25327ee8d943e8c2ae0c94c4c2f3df844824e5e2cad8eb934438560016000803373ffffffffffffffffffffffffffffffffffffffff1673ffffffffffffffffffffffffffffffffffffffff1681526020019081526020016000208054905061057b9190610bb3565b60405161058b9493929190610bf6565b60405180910390a25050565b565b60006105a3610643565b905060008111156105f6573373ffffffffffffffffffffffffffffffffffffffff166108fc829081150290604051600060405180830381858888f193505050501580156105f4573d6000803e3d6000fd5b505b6000803373ffffffffffffffffffffffffffffffffffffffff1673ffffffffffffffffffffffffffffffffffffffff168152602001908152602001600020600061064091906107ba565b50565b6000806000803373ffffffffffffffffffffffffffffffffffffffff1673ffffffffffffffffffffffffffffffffffffffff168152602001908152602001600020805480602002602001604051908101604052809291908181526020016000905b82821015610707578382906000526020600020906003020160405180606001604052908160008201548152602001600182015481526020016002820160009054906101000a900460ff1660ff1660ff1681525050815260200190600101906106a4565b5050505090506000805b82518110156107a85743610724826101cb565b10156107955782818151811061073d5761073c610955565b5b60200260200101516040015160ff16610755826103a6565b14156107945760128382815181106107705761076f610955565b5b6020026020010151600001516107869190610a30565b826107919190610c3b565b91505b5b80806107a090610c91565b915050610711565b50809250505090565b6000602a905090565b50805460008255600302906000526020600020908101906107db91906107de565b50565b5b808211156108155760008082016000905560018201600090556002820160006101000a81549060ff0219169055506003016107df565b5090565b600080fd5b6000819050919050565b6108318161081e565b811461083c57600080fd5b50565b60008135905061084e81610828565b92915050565b60006020828403121561086a57610869610819565b5b60006108788482850161083f565b91505092915050565b61088a8161081e565b82525050565b60006020820190506108a56000830184610881565b92915050565b60008115159050919050565b6108c0816108ab565b82525050565b60006040820190506108db60008301856108b7565b6108e86020830184610881565b9392505050565b600060ff82169050919050565b610905816108ef565b811461091057600080fd5b50565b600081359050610922816108fc565b92915050565b60006020828403121561093e5761093d610819565b5b600061094c84828501610913565b91505092915050565b7f4e487b7100000000000000000000000000000000000000000000000000000000600052603260045260246000fd5b600082825260208201905092915050565b7f496e636f72726563742069640000000000000000000000000000000000000000600082015250565b60006109cb600c83610984565b91506109d682610995565b602082019050919050565b600060208201905081810360008301526109fa816109be565b9050919050565b7f4e487b7100000000000000000000000000000000000000000000000000000000600052601160045260246000fd5b6000610a3b8261081e565b9150610a468361081e565b9250817fffffffffffffffffffffffffffffffffffffffffffffffffffffffffffffffff0483118215151615610a7f57610a7e610a01565b5b828202905092915050565b6000610a95826108ef565b9150610aa0836108ef565b92508260ff03821115610ab657610ab5610a01565b5b828201905092915050565b7f4e487b7100000000000000000000000000000000000000000000000000000000600052601260045260246000fd5b6000610afb8261081e565b9150610b068361081e565b925082610b1657610b15610ac1565b5b828206905092915050565b7f546865206e756d626572206973206e6f7420612076616c696420526f756c657460008201527f7465206e756d6265720000000000000000000000000000000000000000000000602082015250565b6000610b7d602983610984565b9150610b8882610b21565b604082019050919050565b60006020820190508181036000830152610bac81610b70565b9050919050565b6000610bbe8261081e565b9150610bc98361081e565b925082821015610bdc57610bdb610a01565b5b828203905092915050565b610bf0816108ef565b82525050565b6000608082019050610c0b6000830187610881565b610c186020830186610881565b610c256040830185610be7565b610c326060830184610881565b95945050505050565b6000610c468261081e565b9150610c518361081e565b9250827fffffffffffffffffffffffffffffffffffffffffffffffffffffffffffffffff03821115610c8657610c85610a01565b5b828201905092915050565b6000610c9c8261081e565b91507fffffffffffffffffffffffffffffffffffffffffffffffffffffffffffffffff821415610ccf57610cce610a01565b5b60018201905091905056fea2646970667358221220d02bdb7ef1acf72df8e6dd9a59142a6d3d73d51334f0cb2e8b3b49f21bbaa79c64736f6c634300080a0033",
  "immutableReferences": {},
  "source": "// SPDX-License-Identifier: GPL-3.0\n\npragma solidity >=0.8.0 <0.9.0;\n\n\ncontract Roulette {\n\n    // Roulettes go from 0 to 36 included\n    uint8 constant biggest_number = 36;\n\n    modifier is_valid_number(uint8 nb) {\n        require(nb <= biggest_number, \"The number is not a valid Roulette number\");\n        _;\n    }\n\n    struct Bid {\n        uint256 value;\n        uint256 block_number;\n        uint8 number;\n    }\n\n    event BidCreated(\n        address indexed from,\n        uint256 value,\n        uint256 block_number,\n        uint8 number,\n        uint256 id\n    );\n\n    // Each address can play several times\n    mapping (address => Bid[]) bids;\n\n    // The roulette may require funds\n    function deposit() public payable {}\n\n    function play(uint8 roulette_number) public payable is_valid_number(roulette_number) {\n        bids[msg.sender].push(Bid(msg.value, block.number, roulette_number));\n\n        emit BidCreated(msg.sender, msg.value, block.number, roulette_number, bids[msg.sender].length - 1);\n    }\n\n    function get_block_number(uint256 id) public view returns(uint256) {\n        return bids[msg.sender][id].block_number;\n    }\n\n    function get_winning_number(uint256 id) public view returns(uint256) {\n        require(get_block_number(id) < block.number);\n        return (uint256(blockhash(get_block_number(id))) % uint256(biggest_number + 1));\n    }\n\n    function won(uint256 id) public view returns(bool, uint256) {\n        Bid[] memory b = bids[msg.sender];\n        require(id < b.length, \"Incorrect id\");\n        return (get_winning_number(id) == b[id].number, b[id].value * 18);\n    }\n\n    function test() public view returns(uint256) {\n        return 42;\n    }\n\n    function calculate_winnings() public view returns(uint256) {\n        Bid[] memory b = bids[msg.sender];\n        uint256 winnings = 0;\n        for (uint i = 0; i < b.length; i++) {\n            if(get_block_number(i) < block.number) {\n                if(get_winning_number(i) == b[i].number) {\n                    winnings += b[i].value * 18;\n                }\n            }\n        }\n        return winnings;\n    }\n\n    function get_winnings() public {\n        uint256 winnings = calculate_winnings();\n        if(winnings > 0) {\n            payable(msg.sender).transfer(winnings);\n        }\n\n        // calculate_winning will fail if the player bade in the same block\n        // we can thus safely delete all bids\n        delete bids[msg.sender];\n    }\n\n}\n",
  "sourcePath": "/home/quentin/code/Loterie/contracts/Roulette.sol",
  "compiler": {
    "name": "solc",
    "version": "0.8.10+commit.fc410830.Emscripten.clang"
  },
  "schemaVersion": "3.4.3",
  "updatedAt": "2021-12-15T14:09:03.319Z",
  "networkType": "ethereum",
  "devdoc": {
    "kind": "dev",
    "methods": {},
    "version": 1
  },
  "userdoc": {
    "kind": "user",
    "methods": {},
    "version": 1
  }
}